:020000040800F2
:100000001005002001010008AF1E0008791D00083E
:10001000AD1E00086D090008C522000800000000A0
:10002000000000000000000000000000D31E0008D7
:10003000A709000800000000D11E0008D51E000816
:100040001B0100081B0100081B0100081B01000820
:100050001B0100081B0100081B0100081B01000810
:100060001B0100081B0100081B01000871090008A2
:100070001B0100081B0100081B0100081B010008F0
:100080001B0100081B0100081B0100081B010008E0
:100090001B0100081B0100081B0100081B010008D0
:1000A0001B0100081B0100081B0100081B010008C0
:1000B000811F00081B0100081B0100081B0100082C
:1000C0001B0100081B0100081B0100081B010008A0
:1000D0001B0100081B0100081B0100081B01000890
:1000E0001B0100081B0100081B010008DFF80CD0F1
:1000F00000F092FB00480047C123000810050020D3
:100100000648804706480047FEE7FEE7FEE7FEE7B1
:10011000FEE7FEE7FEE7FEE7FEE7FEE7391F000821
:10012000ED000008202A04DB203A21FA02F0002129
:10013000704721FA02F3D040C2F1200291400843F7
:1001400019467047D2B201E000F8012B491EFBD2DC
:1001500070470022F6E710B513460A4604461946D2
:10016000FFF7F0FF204610BDF0B480EA0102D40F83
:100170004200B2EB410F02D20246084611464A0045
:1001800042D0C30DDDB2C1F3C752AD1A202D35DA0E
:10019000C1F3160141F4000204B15242C5F1200638
:1001A00002FA06F12A411044B3EBD05F23D0C4B168
:1001B000012DA0EBC35009DCF0BC4FF0004202EA75
:1001C000C352DBB200F5000000F09ABA400000F123
:1001D000807000EBC350A0F1807040EAD1704900FC
:1001E00009E0490841EAC071A0EBC35000F50000E6
:1001F000400800EBC350F0BC00F079BA6142012224
:1002000002EB4101001BF6E7F0BC704781F00041B2
:10021000AAE780F00040A7E780EA010210B502F0EB
:100220000043400022D04A001FD0010E01EB1261B2
:10023000C0F35600C2F3560240F4000042F400023C
:10024000A0FB022000047F39140400D0401C50EAB7
:10025000124001D44000491EC2B20C0604EBD0107B
:10026000401C4008802A02D003E0002010BD20F08E
:100270000100002900DA0020184310BD30B480EAE4
:10028000010202F0004530F0004221F0004013D09E
:1002900090B1C30DD40DC2F31601C0F31600E41AD9
:1002A00041F4000140F400027D34914201D3641C0A
:1002B00000E04900002C02DA30BC002070474FF407
:1002C00000000023914201D3891A034340084FEAFA
:1002D0004101F7D151B1914202D14FF0004105E007
:1002E00002D24FF0010101E06FF0010103EBC450B5
:1002F000284430BC00F0FBB92DE9FE4F804681EA6E
:100300000300C00F0C46009021F0004123F000458F
:10031000B8EB0200A94105D24046214690461C4652
:100320000B46024623F00040104347D0270DC7F389
:100330000A00C3F30A510290401A019040286BDA78
:10034000C3F3130040F4801B0098924620B10023B1
:10035000D2EB030A63EB0B0B01985946C0F1400244
:10036000504600F0A3F906460D4650465946019AFC
:1003700000F0ABF910EB08006141002487EA11524C
:1003800084EAE7731A4340D0009A62B3019A012AC3
:100390004FEA075215DC001B61EB02014FF00042EF
:1003A00002EA0752CDE90042001C41F580113246B5
:1003B0002B4600F0E2F903B0BDE8F08F404621463D
:1003C000F9E7001B61EB0201001C41F580130018E6
:1003D0005B412018A2F5001747EB030140EAD570F6
:1003E000B6196D4111E06D084FEA360645EAC07551
:1003F0004FEA0752001B61EB0201001C41F580111E
:1004000049084FEA30000019514132462B4603B0EB
:10041000BDE8F04F00F0A2B900980122400000238F
:10042000D0EB020263EBE073009821464FEAE074E0
:10043000B8EB000061EB0401E9E783F000435BE700
:1004400081F0004158E72DE9FE4F81EA030404F0F2
:10045000004421F0004100944FF0000B23F00043D2
:1004600050EA01045ED052EA03045BD0C3F30A549D
:10047000C1F30A552C44A4F2F3340194A0FB0254B6
:10048000C1F3130141F48011C3F3130343F4801348
:1004900001FB024400FB034E840A970A44EA81549C
:1004A00047EA8357A4FB076802958D0A05FB078579
:1004B0004FEA932C04FB0C542705029D4FEA065883
:1004C00047EA1637B5EB08056EEB070C870E920E60
:1004D00047EA811742EA8312A7FB0201B6EB0B0140
:1004E00064EB00042B0D43EA0C335E1844EB1C5004
:1004F000DA465146E7FB0201C5F313044FEA0B331A
:1005000043EA14534FEA0432019C43EA0603A4F180
:100510000C040294009CCDE900B400F02EF903B065
:10052000BDE8F08F00200146F9E72DE9F04D81EAA2
:10053000030404F0004B21F0004514464FF0000A7C
:1005400023F0004150EA050220D054EA01021DD0F8
:10055000C5F30A570246C5F31303C1F31300C1F3F1
:100560000A5640F4801543F48013A7EB0608101BCD
:10057000D64608F2FD3873EB050002D308F10108F6
:1005800001E092185B41B8F1000F03DA0020014648
:10059000BDE8F08D00204FF48011064684460EE041
:1005A000171B73EB050705D3121B63EB050306430B
:1005B0004CEA010C49084FEA300092185B4150EABE
:1005C0000107EDD152EA030012D082EA040083EA67
:1005D0000501084305D0101BAB4106D201220023C0
:1005E00006E000224FF0004302E06FF001025310DA
:1005F0001AEB06004CEB085110EB0A0041EB0B0123
:10060000BDE8F04D00F0AAB896230022114600F094
:1006100077B820F00040C10DC0F3160040F4000090
:100620007F2901DA00207047962903DCC1F1960189
:10063000C840704796398840704700F0004230F05B
:1006400000400AD0C10D01F56071C0F3160042EA06
:100650000151C2084007114370470020014670470E
:1006600001F0004330B421F0004150EA010206D00D
:100670000A0DA2F56072C1F31301002A02DC30BC3E
:1006800000207047440F44EAC104C100E01830BCA8
:1006900000EBC25000F02BB8002801DBC0F1004095
:1006A000002901DBC1F1004181427047202A04DBAF
:1006B000203A00FA02F1002070479140C2F1200375
:1006C00020FA03F3194390407047202A06DBCB172A
:1006D000203A41FA02F043EAE07306E041FA02F3FD
:1006E000D040C2F1200291400843194670470029CA
:1006F000A8BF7047401C490008BF20F001007047A8
:1007000010B4B0FA80FC00FA0CF050EA010404BF07
:1007100010BC704749B1CCF1200421FA04F411FA5D
:100720000CF118BF012121430843A3EB0C01CB1DA1
:100730004FEA00614FEA102042BF002010BC704712
:1007400000EBC35010440029A4BF10BC7047401CEC
:10075000490008BF20F0010010BC704710B5141EFE
:1007600073F1000408DA401C41F1000192185B416A
:100770001A4301D120F0010010BD2DE9F04D924641
:100780009B4611B1B1FA81F202E0B0FA80F2203258
:100790009046FFF78BFF04460F4640EA0A0041EA05
:1007A0000B0153465A46084313D0114653EA010041
:1007B00019D0C8F140025046FFF7B4FC05460E467A
:1007C000504659464246FFF771FF084305D00120C5
:1007D00004E020463946BDE8F08D0020054346EA96
:1007E000E0762C4337430A986305E40AA0EB08003F
:1007F0000022FD0A44EA47540A3002D5002001468F
:10080000E9E7010510196941DDE908450019694169
:10081000BDE8F04DA2E70000064C074D06E0E06899
:1008200040F0010394E8070098471034AC42F6D337
:10083000FFF760FCD0240008F024000870B50446DF
:1008400000688168C943C9071CD1816821F0010192
:10085000816000F093FC05460FE000BF00F08EFCC5
:10086000401B022809D9A06A40F01000A062E06A8B
:1008700040F00100E062012070BD20688068C04344
:10088000C007EBD0002070BD10B50146406A826AF7
:1008900012F0500F05D0006A026BBDE81040084608
:1008A0001047816A41F40071816201688968C1F36F
:1008B000424107290CD1C16851B9816A21F4807184
:1008C0008162816AC90403D4816A41F001018162B5
:1008D00000F0EAF810BD10B5406A816A41F04001AD
:1008E0008162C16A41F00401C16200F0DFF810BD0D
:1008F00010B5406A00F0D9F810BD0000F8B5002628
:100900000446009600688168C943C90728D08168F9
:1009100041F001018160134813490068B0FBF1F018
:1009200000E0401E00900028FBD100F027FC0546A7
:1009300011E000BF00F022FC401B02280BD9A06A86
:1009400040F01000A062E06A40F00100E06284F82C
:1009500024600120F8BD20688068C043C007E9D149
:100960000020F8BD1800002040420F00FEE7000004
:10097000014800F0F9B90000CC00002030B590F833
:1009800040500124AC40C56B6C60046863604368F0
:10099000102B036803D099600068C26030BD9A6074
:1009A0000068C16030BD704770470000F8B5002492
:1009B000009490F824202546012A12D0012280F8C4
:1009C00024204A681F23072A0DD20668776B521E1F
:1009D00002EB820293409F430B6893401F4377636F
:1009E00019E00220F8BD06680D2A0AD2376BD21F23
:1009F00002EB820293409F430B6893401F4337638F
:100A000009E0F76A0D3A02EB820293409F430B68BC
:100A100093401F43F7620A68072306680A2A0AD32D
:100A2000F7680A3A02EB420293409F438B68934077
:100A30001F43F76008E0376902EB420293409F438F
:100A40008B6893401F4337610A68102A01D0112A2E
:100A500020D1124B02689A4217D193681B0219D415
:100A6000936843F4000393600968102912D10C497C
:100A70000C4A0968B1FBF2F101EB8101490000E089
:100A8000491E00910029FBD104E0816A41F0200158
:100A90008162012480F824502046F8BD00240140E2
:100AA0001800002040420F00704770477047000058
:100AB0002DE9F0414FF0000704003D467ED0A06ACA
:100AC000002628B9E66284F82460204600F07EF80B
:100AD0002046FFF7B3FEA16AC90600D420B1A06A80
:100AE00040F01000A06269E0A16A21F4885141F051
:100AF0000201A1626268E169E3680A4347EA4301CF
:100B00000A43A1684FF48077B94209D0012907D080
:100B10005FF00001D4F814C0BCF1010F02D00AE06C
:100B20003946F7E7F3B1A36A43F02003A362E36A0F
:100B300043F00103E3622368D3F804C02CF4694C4A
:100B40004CEA010CC3F804C021688B68DFF870C060
:100B500003EA0C0313438B60A168B9420BD001294F
:100B600009D00CE0DFF85CC0A3690CEB43330B4306
:100B700043F40061DFE7218A0D05A5F580152168A2
:100B8000CB6A23F470032B43CB62216889680E4B38
:100B90001940914208D1E662A16A21F0020141F0B8
:100BA0000101A162BDE8F081A06A20F0020040F0DE
:100BB0001000A062E06A40F00100E0620120F1E76D
:100BC000FDF7E1FF00E0FFFFFE0E1FFF70B586B0EE
:100BD00000260546009601960296039600681A497B
:100BE00088422FD11949886940F40070886188696A
:100BF00000F400700490886940F0040088618869FE
:100C0000694600F004000490302000900320019019
:100C10000F4800F0CBF9104C0E48C4E900068020C4
:100C2000C4E9026040002061800060612020A06172
:100C30000002E061204600F041F908B1FFF7B4FE80
:100C40002C62656206B070BD0024014000100240B5
:100C50000008014008000240CC0000202DE9F047C8
:100C6000894604463B4900683B4F0E1D904688422A
:100C700001D0B84207D1306810F4702F03D001259D
:100C80002846BDE8F08794F8240001280CD0012004
:100C900084F824002046FFF731FE05004FF00000E5
:100CA00004D084F82400EBE70220EAE7A16A40F6CA
:100CB0000162914341F48071A1622168B94218D167
:100CC000326812F4702F14D0A16A41F48011A1622D
:100CD0003168490505D5A16A21F4005141F48051DC
:100CE000A162A16AC9040AD5E16A21F00601E162A4
:100CF00006E0A26A22F48012A2624968E9E7E06293
:100D000084F82400216A15488862216A1448C86260
:100D1000216A1448086321686FF0020008602068A7
:100D2000816841F480718160216843464A464C31B4
:100D3000206A00F0F1F820688168C1F34241072978
:100D4000816803D041F48011816099E741F4A001EA
:100D5000FAE700000024014000280140890800084B
:100D6000F1080008D70800082DE9F05FC16B0C6896
:100D700001680B68D0F840C0042202FA0CF2494D19
:100D8000DFF824A1494E4A4FDFF828B1DFF828E107
:100D900022422CD05A072AD50A68920603D40A6840
:100DA00022F004020A600168A94201D1042219E07C
:100DB000514501D1402215E0B14202D14FF4806289
:100DC00010E0B94202D14FF480420BE0594502D104
:100DD0004FF4802206E0714502D14FF4800201E019
:100DE0004FF080622F4908394A60C16A3BE04FF0FA
:100DF000020808FA0CF818EA040F4FF000094FF047
:100E0000010235D05FEA837832D50B689B0605D4A2
:100E10000B6823F00A030B6080F821200168A942C7
:100E200001D1022219E0514501D1202215E0B14241
:100E300002D14FF4007210E0B94202D14FF40052D7
:100E40000BE0594502D14FF4003206E0714502D162
:100E50004FF4001201E04FF00072124908394A6065
:100E600080F82090816A00291AD0BDE8F05F084719
:100E7000082505FA0CF5254212D01B0710D50B6882
:100E800023F00E030B6090F84010C36B02FA01F1DF
:100E90005960826380F8212080F82090016BE2E79E
:100EA000BDE8F09F080002401C00024030000240F4
:100EB00044000240580002406C00024030B528B3A4
:100EC00008C8134914221944B1FBF2F18900C16327
:100ED00010498163022141771A6843F6F0718A4311
:100EE000D0E900142143D0E902452C432143046991
:100EF000214344692143846921431143196000213E
:100F00004163012242770177084630BD012030BDA0
:100F1000F8FFFDBF0000024070B5044690F82000C5
:100F2000002501280CD0012084F8200094F82160CD
:100F30000020012E06D084F820000225284670BD2E
:100F4000022070BD022684F82160A0632068066834
:100F500026F0010606602046FFF710FDE06A002833
:100F60002068016802D041F00E0106E021F0040182
:100F700001602068016841F00A0101602068016891
:100F800041F001010160D9E770B5044600F0F6F8C0
:100F90000546601C02D004480078044400F0EEF8D6
:100FA000401BA042FAD370BD0C0000202DE9F84F81
:100FB000DFF890A100220AF1040B144601274FF03C
:100FC0000F090BF1040E00BF0B6807FA04F52B4064
:100FD000AB4274D1DFF870C14E68A6EB0C086645D1
:100FE0002BD00DDC032E34D005DC36B3012E19D006
:100FF000022E2FD11BE0112E16D0122E2AD119E06D
:10100000B8F5881F19D006DCB8F5803F15D0B8F5C3
:10101000801F1FD111E0B8F5001F0ED0B8F5041FD6
:1010200018D10AE0CA6815E0CA68121D12E0CA6841
:1010300008320FE0CA680C320CE08A682AB1012A33
:101040004FF0080203D0456104E0042202E005618C
:1010500000E00022FF2B01D8064601E000F1040663
:101060004FEA840501D9A5F12005D6F800C009FA98
:1010700005F82CEA080C02FA05F54CEA050CC6F84E
:1010800000C04D68ED0057D5304DAE6946F0010601
:10109000AE61AD6924F0030605F0010500952C4D05
:1010A00006EB050CDCF80850A6074FEA167809FA9B
:1010B00008F6B543274EB04202D1002610E03BE0CF
:1010C000254EB04201D101260AE0244EB04201D1A2
:1010D000022605E0224EB04201D1032600E004269C
:1010E00006FA08F62E43CCF808604D68DAF800607E
:1010F000ED03554601D51E4300E09E432E604D682A
:10110000DBF80060AD035D4601D51E4300E09E4361
:101110002E604D68DEF80060ED02754601D51E4375
:1011200000E09E432E604D68AD020E4D2E6801D545
:101130001E4300E09E432E60641C102CFFF444AF5D
:10114000BDE8F88F000401400000111000100240BB
:101150000000014000080140000C01400010014067
:10116000001401400C040140C2684A40C26070474C
:101170000AB1016170470904FBE70000014880687B
:10118000704700000C00002002488168027811447A
:10119000816070470C000020074810B5016841F0DD
:1011A00010010160032000F073F8002000F006F841
:1011B00000F024F8002010BD0020024070B50D4D55
:1011C00004464FF47A712878B1FBF0F00A490968B7
:1011D000B1FBF0F000F072FB48B9102C07D20022EE
:1011E0002146501E00F034F800206C6070BD0120D4
:1011F00070BD00000C000020180000200C4808B54D
:10120000816941F001018161816901F00101009171
:10121000C16941F08051C161C06900F08050009007
:101220000448416821F0E06141F00071416008BD6F
:10123000001002400000014000F01F020121914017
:101240004009800000F1E020C0F800117047000064
:10125000F0B40E4B1B680C46C3F30223C3F1070521
:10126000042D00D90425191D072901D2002300E00F
:10127000DB1E012606FA05F1491E214099409E40D9
:10128000761E16403143F0BC00F012BE0CED00E0BB
:10129000064900F0070208684FF6FF03184040EACD
:1012A0000220034A10430860704700000CED00E084
:1012B0000000FA052DE9F84305460078354CC007D3
:1012C00054D0E0690026C00008D4E06940F08050A6
:1012D000E061E069012600F0805000902E4801682E
:1012E000C90512D40168804641F480710160FFF79E
:1012F00045FF074605E000BFFFF740FFC01B64281D
:1013000023D8D8F80000C005F6D5206A10F4407044
:1013100021D0A98801F4407181421CD0206A1F4964
:10132000012220F440700A6000220A602062C00797
:1013300011D0FFF723FF074641F2883808E000BFCD
:10134000FFF71CFFC11B414502D90320BDE8F8830C
:10135000206A8007F4D5206A696820F44070084349
:1013600020621EB1E06920F08050E061287880079B
:1013700005D56068A96820F440400843606028787B
:10138000C00605D56068E96820F480000843606005
:101390000020DBE7001002400070004040044242A1
:1013A0002DE9F047DFF8548105460E46D8F80000D5
:1013B00000F00700B0420CD2D8F8001021F007016D
:1013C0003143C8F80010D8F8000000F00700B04220
:1013D0006FD128684A4C810712D5400703D5606851
:1013E00040F4E06060602878000703D5606840F44E
:1013F000605060606068A96820F0F0000843606099
:101400002878C00744D06868012816D021680228CF
:1014100016D0890700294CDA616821F003010143E5
:101420006160FFF7ABFE6968074641F28830012929
:101430000ED00229814618D026E021688903E9E709
:101440008901E7E7FFF79AFEC11B494501D918E07A
:1014500081466068C0F381000128F3D118E000BF25
:10146000FFF78CFEC11B49450BD86068C0F38100B3
:101470000228F5D10CE000BFFFF780FEC11B4945F3
:1014800002D90320BDE8F087606810F00C0FF3D19B
:10149000D8F80010404601F00701B1420BD90168AD
:1014A00021F0070131430160006800F00700B042FD
:1014B00001D00120E6E72878400705D56068E96893
:1014C00020F4E060084360602878000706D5606873
:1014D000296920F4605040EAC100606000F036F8ED
:1014E0006168084AC1F30311515CC84006490860AD
:1014F0000020FFF763FE0020C4E700000020024048
:1015000000100240B82400081800002004480549D3
:1015100000684968044AC1F30221515CC840704721
:101520001800002000100240C824000804480549A3
:1015300000684968044AC1F3C221515CC840704741
:101540001800002000100240C824000812A185B035
:101550000FC98DE80F0014A0144A00680490516868
:10156000134801F00C03042B10D0082B0ED1C1F34B
:101570008343C9031DF803000AD5516804AAC1F3C7
:101580004041515C0A4A5043B0FBF1F005B070474E
:1015900008494843FAE70000020304050607080962
:1015A0000A0B0C0D0E0F101001020000001002407B
:1015B00000127A0000093D002DE9F84F044600783A
:1015C000B94DC00748D06868C0F38100012807D032
:1015D0006868C0F38100022809D16868C00306D595
:1015E0002868800338D5606800286FD034E06068D0
:1015F000B0F5803F0BD010B1B0F5A02F11D0286806
:1016000020F480302860286820F4802002E02868D8
:1016100040F480302860606888B1FFF7AFFD06466F
:1016200009E0286840F480202860F0E7FFF7A6FD75
:10163000801B642875D828688003F7D50CE0FFF775
:101640009DFD064605E000BFFFF798FD801B64285E
:10165000F0D828688003F7D42078944E80074FF0A4
:1016600001094FF000083BD5686810F00C0F07D057
:101670006868C0F38100022809D16868C00306D4F5
:101680002868800714D5206901281FD110E020693F
:10169000B0B1C6F80090FFF771FD074605E000BF46
:1016A000FFF76CFDC01B0228C4D828688007F7D557
:1016B0002868616920F0F80040EAC10028600FE066
:1016C000C6F80080FFF75AFD074606E0E9E000BFD4
:1016D000FFF754FDC01B022823D828688007F7D4E1
:1016E000207800072CD57248A169D9B1C0F80090C4
:1016F000FFF744FD074604E0FFF740FDC01B02284A
:101700000FD8686A8007F7D56A484FF4FA51006825
:10171000B0FBF1F0009000BF0098411E0091FAD29A
:101720000EE080E0C0F80080FFF728FD074604E0E7
:10173000FFF724FDC01B022875D8686A8007F7D41C
:101740002078400760D5E8690027C00008D4E86920
:1017500040F08050E861E869012700F08050009077
:1017600055480168C90513D40168834641F4807166
:101770000160FFF703FD824606E000BFFFF7FEFCB5
:10178000A0EB0A0064284ED8DBF80000C005F5D5B0
:10179000E06801280AD008B1052813D0286A20F093
:1017A00001002862286A20F0040002E0286A40F064
:1017B00001002862E06841F2883B98B1FFF7DEFC47
:1017C00082460BE0286A40F004002862EEE700BF82
:1017D000FFF7D4FCA0EB0A0159455AD8286A8007C4
:1017E000F6D50CE0FFF7CAFC824605E0FFF7C6FC21
:1017F000A0EB0A0159454CD8286A8007F6D41FB1DE
:10180000E86920F08050E861E06988B36968C1F355
:101810008101022945D00228C6F8608004D0FFF774
:10182000ADFC044638E034E0FFF7A8FC074604E0CE
:10183000FFF7A4FCC01B02282BD828688001F7D42E
:10184000206AB0F5803F05D16868A16820F40030B7
:1018500008436860D4E908010843696821F47411F9
:1018600008436860C6F86090FFF788FC044606E00D
:1018700015E000BFFFF782FC001B022809D828688A
:101880008001F7D50BE000BFFFF778FC001B0228B2
:1018900002D90320BDE8F88F28688001F4D4002025
:1018A000F8E70120F6E70000001002400000424285
:1018B00080044242180000200070004010B5401E15
:1018C000B0F1807F01D3012010BD4FF0E0246061B2
:1018D0000F21601700F0ECFA0020A06107202061C2
:1018E000002010BD7047704730B590F83C20012AA9
:1018F00020D0012280F83C20022380F83D3003688C
:101900005C6824F070045C6003685C680D682C43BC
:101910005C6003689C6824F080049C6003689C6899
:1019200049680C439C6080F83D20002180F83C1001
:10193000084630BD022030BD704770B504460068CF
:1019400001694FF00005C943890715D4C168C9432F
:10195000890711D4E91E0161012020772068806980
:101960008007204602D0FFF7E7FF04E000F0C6F84A
:10197000204600F063F9257720680169C9434907CB
:1019800017D4C168C943490713D46FF0040101613A
:10199000022020772068806910F4407F204602D022
:1019A000FFF7CAFF04E000F0A9F8204600F046F96E
:1019B000257720680169C943090716D4C168C9435E
:1019C000090712D46FF00801016104202077206814
:1019D000C0698007204602D0FFF7AEFF04E000F0A8
:1019E0008DF8204600F02AF9257720680169C9435F
:1019F000C90617D4C168C943C90613D46FF01001D2
:101A00000161082020772068C06910F4407F2046DB
:101A100002D0FFF791FF04E000F070F8204600F0DC
:101A20000DF9257720680169C943C90708D1C16844
:101A3000C943C90704D1891E0161204600F030F96D
:101A400020680169C943090609D4C168C943090668
:101A500005D46FF0800101612046FFF743FF206845
:101A60000169C943490609D4C168C943490605D477
:101A70006FF040010161204600F013F92068016910
:101A8000C94389060BD4C168C943890607D46FF0DE
:101A9000200101612046BDE87040FFF724BF70BD02
:101AA00000B585B000210091019102910391006879
:101AB000B0F1804F1AD10E48816941F0080181616F
:101AC0008069694600F00800049008200090022018
:101AD000019003900748FFF769FA0748416821F42D
:101AE000407141F0E06141F48071416005B000BD9A
:101AF00000100240000C014000000140704770B52A
:101B0000044690F83C000D4601280DD0012684F8CB
:101B10003C60022084F83D0042B1042A18D0082A13
:101B20002AD00C2A4DD139E0022070BD206800F087
:101B30006FFA2068816941F008018161206881693C
:101B400021F004018161206881692A69114311E053
:101B5000206800F085FA2068816941F400618161A4
:101B60002068816921F480618161206881692A6926
:101B700041EA0221816124E0206800F09DFA20689A
:101B8000C16941F00801C1612068C16921F0040107
:101B9000C1612068C1692A69114311E0206800F021
:101BA000B7FA2068C16941F40061C1612068C16968
:101BB00021F48061C1612068C1692A6941EA02217A
:101BC000C16184F83D60002084F83C0070BD10B510
:101BD000040003D094F83D0010B107E0012010BDCF
:101BE000002084F83C00204600F00CF8022084F825
:101BF0003D00211D206800F0C9F9012084F83D0056
:101C0000002010BD08B50068B0F1804F12D10A481D
:101C1000C16941F00101C161C069002200F0010009
:101C2000009011461C20FFF713FBBDE808401C2064
:101C3000FFF702BB08BD0000001002407047000023
:101C400010B50268044631B1042908D008291DD016
:101C50000C2908D11EE0D06840F0020002E0D068F4
:101C600040F00400D0600122206800F0C5F90B4963
:101C70002068884203D1416C41F4004141642068EE
:101C8000016841F001010160002010BDD06840F002
:101C90000800E7E7D06840F01000E3E7002C0140BF
:101CA0007047704770B5040004D094F839000025DF
:101CB00010B106E0012070BD84F83850204600F0D5
:101CC00023F8242084F839002068C16821F40051E9
:101CD000C160204600F03EFA2068016921F490417D
:101CE00001612068416921F02A0141612068C168D1
:101CF00041F40051C160E563202084F8390084F884
:101D00003A00002070BD000030B585B0002400947A
:101D100001940294039400681449884224D1144821
:101D2000C16941F48021C161C16901F4802104913C
:101D3000816941F00801816180690E4D00F0080061
:101D400004904FF4806000900220019003200390E3
:101D500069462846FFF72AF9E814CDE900046946E8
:101D600028460294FFF722F905B030BD0048004034
:101D700000100240000C0140FEE700003EB50021CB
:101D8000124800910191104A029102609215C0E937
:101D90000221416102244FF460220461C26141606A
:101DA000FEF786FE0420009001200190072002909B
:101DB00069460648FEF7FAFD0520CDE900046946AC
:101DC0000248FEF7F3FD3EBD002401401C00002048
:101DD00030B585B000241C4800940194029403940B
:101DE000816941F020018161816901F02001049144
:101DF000816941F004018161816901F0040104916C
:101E0000816941F0080181618069104D00F008008E
:101E10000490012247F220012846FFF7A9F9002289
:101E20004FF488712846FFF7A3F947F2301000906D
:101E30000120CDE901040320039069462846FFF7FD
:101E4000B5F805B030BD000000100240000C0140A4
:101E500010B58AB0002407941C2168460894FEF748
:101E600078F911484FF0804101604FF43471C0E9B6
:101E70000114C821C0E903148461FFF7A8FE079488
:101E800007A909480894FFF72FFD6020CDE9000459
:101E900002940422694604480494FFF730FE024885
:101EA000FFF7FEFD0AB010BD4C000020FEE77047B2
:101EB0000907090E002806DA00F00F0000F1E02003
:101EC00080F8141D704700F1E02080F8001470477E
:101ED00070477047FFF758B930B593B0282168466E
:101EE000FEF737F914210AA8FEF733F90024012080
:101EF0000F9410941194010412948DE8130004902F
:101F00004FF4E010CDE90810022507956846FFF769
:101F100053FB0F20CDE90A056802CDE90C400221F0
:101F20000AA80E94FFF73CFAA80311900F950FA88A
:101F3000FFF7C0F913B030BD0D48016841F0010151
:101F4000016041680B4A1140416001680A4A114032
:101F50000160016821F480210160416821F4FE01E3
:101F600041604FF41F0181600449C003086070475D
:101F7000001002400000FFF8FFFFF6FE08ED00E051
:101F80000148FFF7DABC00004C000020F0B5026801
:101F9000164B174C174D4FF08047984205D0B8426A
:101FA00003D0A04201D0A84203D122F070064A68B3
:101FB0003243984205D0B84203D0A04201D0A84293
:101FC00003D122F44074CA68224322F080044A6993
:101FD000224302608A68C2620A688262984201D122
:101FE0000969016301214161F0BD0000002C01403D
:101FF000000400400008004010B50123046A8B4033
:102000009C430462036A8A401343036210BD0000CC
:1020100030B5026A22F001020262026A43688469F2
:1020200024F073050C682C4322F002058A682A43C9
:102030000A4DA8420BD122F00805CA6823F4407368
:102040002A434D6922F004021D438B692B434360F0
:10205000846149684163026230BD0000002C014088
:1020600030B5026A22F010020262026A4368846993
:102070000D6824F4E64444EA05248D6822F0200229
:1020800042EA05120B4DA8420ED1CD6822F0800223
:1020900042EA05124D6923F4406343EA85038D69E2
:1020A00022F0400243EA850343608461496881630A
:1020B000026230BD002C014030B5026A22F4807209
:1020C0000262036A4268C46923F4007324F0730552
:1020D0000C682C438D6843EA05230C4DA8420ED1B1
:1020E000CD6823F4006343EA05234D6922F440528E
:1020F00042EA05128D6923F4806342EA05124260C8
:10210000C4614968C163036230BD0000002C014016
:1021100030B5026A22F480520262046A4268C369DE
:102120000D6823F4E64343EA05238D6824F4005444
:1021300044EA0534064DA84204D14D6922F4804298
:1021400042EA85124260C36149680164046230BD9D
:10215000002C01402DE9F041044600680169E26865
:1021600021F44051114301612169A068084361696C
:1021700008432168CA6841F20C639A430243CA606B
:1021800020684169A26921F44071114341614C49C1
:1021900020686425322688423CD1FFF7C7F900EB5E
:1021A000C00101EB001061688900B0FBF1F7FFF797
:1021B000BDF900EBC00101EB00106168B046890079
:1021C000B0FBF1F0B0FBF5F06FF01801484307EBFE
:1021D000800106EB0110B0FBF5F000F0F006FFF710
:1021E000A5F900EBC00101EB001061688900B0FBAC
:1021F000F1F0B0FBF5F006EB0016FFF797F900EBF6
:10220000C00101EB001061688900B0FBF1F7FFF736
:102210008DF93BE0FFF77AF900EBC00101EB00100C
:1022200061688900B0FBF1F7FFF770F900EBC001BE
:1022300001EB00106168B0468900B0FBF1F0B0FB23
:10224000F5F06FF01801484307EB800106EB011031
:10225000B0FBF5F000F0F006FFF758F900EBC00115
:1022600001EB001061688900B0FBF1F0B0FBF5F004
:1022700006EB0016FFF74AF900EBC00101EB001076
:1022800061688900B0FBF1F7FFF740F900EBC0018E
:1022900001EB001061688900B0FBF1F0B0FBF5F0D4
:1022A0006FF01801484307EB800108EB0110B0FB09
:1022B000F5F0216800F00F0030448860BDE8F0813F
:1022C00000380140FEE702E008C8121F08C1002ADA
:1022D000FAD170477047002001E001C1121F002AA7
:1022E000FBD170472DE9F041054600271C4CFEF755
:1022F000D3F932D21B4885422FDC1B48B4268542D5
:1023000003DA20688663BDE8F08117481749404228
:1023100028448842F7D82846FEF78FF9144A154B0F
:10232000FEF78EF8FEF79CF9134D2946FDF774FF72
:1023300010F1FF4F11D2A842E3DC104AA0F50001D2
:102340009142E0D20E49FDF767FF2946FDF796FF5F
:10235000FEF75FF921688863D5E720688763D2E7D5
:102360004C000020666666419A995941CCCC0C001D
:10237000CDCCCCCCCCCC2C400000C8420000484294
:1023800000007F4310B500F07DF8FEF756F9084ACB
:10239000084BFEF758F80022074BFEF754F80022CE
:1023A000064BFEF7C2F8BDE81040FEF759B9000031
:1023B0002D431CEBE2364A3F00B07040008047409E
:1023C0000EB5002400940194FEF7E6FEFFF784FDAD
:1023D000FFF7FEFC2648416941F001014161406977
:1023E000002200F00100029011460B20FEF730FFA2
:1023F0000B20FEF721FFFFF7C1FC1F481D490160BC
:102400004FF4E131C0E901140C21C460C0E904417A
:102410008461C461FFF746FCFFF71AFD16480421EA
:102420004038FFF70DFC154C154E40F69B354FF428
:102430007A772846FFF7A6FFA0600F480822694672
:102440007038FEF70BFC0098FFF79CFF20600198A6
:10245000FFF798FF014660602068FFF743FF2021E7
:102460003046FEF781FE3846FEF78EFDE1E70000BC
:1024700000100240004800408C00002000000020B6
:10248000000C014070B500252C46FEF7BDF806464D
:1024900031462846FDF768FE05463220FEF774FDFA
:1024A000641C0A2CF4D32846BDE870400149FDF7AE
:1024B000E5BE000000002041000000000000000018
:1024C00001020304060708090000000001020304DA
:1024D000F0240008000000201C000000C6220008B4
:1024E0000C2500081C000020F4040000D62200087F
:1024F00000000000000000000000000001000000DB
:0C250000100000000000000000A24A04CF
:04000005080000ED02
:00000001FF
