:020000040800F2
:100000009805002001010008E1280008F9250008F2
:10001000DD2800085D060008A93000080000000087
:100020000000000000000000000000004929000856
:10003000DD060008000000001D2900084B2900080B
:100040001B0100081B0100081B0100081B01000820
:100050001B0100081B0100081B0100081B01000810
:100060001B0100081B0100081B0100081B01000800
:100070001B0100081B0100081B0100081B010008F0
:100080001B0100081B010008750500081B01000882
:100090001B0100081B0100081B01000829070008BC
:1000A0001B0100081B0100081B0100081B010008C0
:1000B000312A00081B0100081B0100081B01000871
:1000C0001B0100081B0100081B0100081B010008A0
:1000D0001B010008793000088930000899300008B9
:1000E0001B0100081B0100081B010008DFF80CD0F1
:1000F00000F02EFA00480047F13200089805002071
:100100000648804706480047FEE7FEE7FEE7FEE7B1
:10011000FEE7FEE7FEE7FEE7FEE7FEE7D929000877
:10012000ED000008202A04DB203A21FA02F0002129
:10013000704721FA02F3D040C2F1200291400843F7
:1001400019467047D2B201E000F8012B491EFBD2DC
:1001500070470022F6E710B513460A4604461946D2
:10016000FFF7F0FF204610BD2DE9FE4F804681EAE3
:100170000300C00F0C46009021F0004123F0004521
:10018000B8EB0200A94105D24046214690461C46E4
:100190000B46024623F00040104347D0270DC7F31B
:1001A0000A00C3F30A510290401A019040286BDA0A
:1001B000C3F3130040F4801B0098924620B1002343
:1001C000D2EB030A63EB0B0B01985946C0F14002D6
:1001D000504600F008F906460D4650465946019A29
:1001E00000F010F910EB08006141002487EA115279
:1001F00084EAE7731A4340D0009A62B3019A012A55
:100200004FEA075215DC001B61EB02014FF0004280
:1002100002EA0752CDE90042001C41F58011324646
:100220002B4600F047F903B0BDE8F08F4046214669
:10023000F9E7001B61EB0201001C41F58013001877
:100240005B412018A2F5001747EB030140EAD57087
:10025000B6196D4111E06D084FEA360645EAC075E2
:100260004FEA0752001B61EB0201001C41F58011AF
:1002700049084FEA30000019514132462B4603B07D
:10028000BDE8F04F00F007B90098012240000023BC
:10029000D0EB020263EBE073009821464FEAE07472
:1002A000B8EB000061EB0401E9E783F000435BE792
:1002B00081F0004158E72DE9F04D81EA030404F094
:1002C000004B21F0004514464FF0000A23F0004196
:1002D00050EA050220D054EA01021DD0C5F30A57A6
:1002E0000246C5F31303C1F31300C1F30A5640F4E9
:1002F000801543F48013A7EB0608101BD64608F2BE
:10030000FD3873EB050002D308F1010801E09218F3
:100310005B41B8F1000F03DA00200146BDE8F08D23
:1003200000204FF48011064684460EE0171B73EB45
:10033000050705D3121B63EB050306434CEA010CCA
:1003400049084FEA300092185B4150EA0107EDD1AD
:1003500052EA030012D082EA040083EA050108434E
:1003600005D0101BAB4106D20122002306E000227B
:100370004FF0004302E06FF0010253101AEB060049
:100380004CEB085110EB0A0041EB0B01BDE8F04DBE
:1003900000F081B80EB540F2334102910021CDE961
:1003A00000110A460B4600F085F803B000BD01F0CD
:1003B000004330B421F0004150EA010206D00A0D9A
:1003C000A2F56072C1F31301002A02DC30BC0020E8
:1003D0007047440F44EAC104C100E01830BC00EB90
:1003E000C25000F021B8202A04DB203A00FA02F1C2
:1003F000002070479140C2F1200320FA03F3194313
:1004000090407047202A06DBCB17203A41FA02F0D1
:1004100043EAE07306E041FA02F3D040C2F1200261
:1004200091400843194670470029A8BF7047401CF7
:10043000490008BF20F00100704710B4B0FA80FCFA
:1004400000FA0CF050EA010404BF10BC704749B137
:10045000CCF1200421FA04F411FA0CF118BF0121A7
:1004600021430843A3EB0C01CB1D4FEA00614FEA87
:10047000102042BF002010BC704700EBC350104456
:100480000029A4BF10BC7047401C490008BF20F0E1
:10049000010010BC704710B5141E73F1000408DA97
:1004A000401C41F1000192185B411A4301D120F038
:1004B000010010BD2DE9F04D92469B4611B1B1FAF5
:1004C00081F202E0B0FA80F220329046FFF78BFF13
:1004D00004460F4640EA0A0041EA0B0153465A46D9
:1004E000084313D0114653EA010019D0C8F1400265
:1004F0005046FFF717FE05460E46504659464246FF
:10050000FFF771FF084305D0012004E0204639467B
:10051000BDE8F08D0020054346EAE0762C433743E2
:100520000A986305E40AA0EB08000022FD0A44EAE9
:1005300047540A3002D500200146E9E701051019A9
:100540006941DDE9084500196941BDE8F04DA2E7C0
:10055000064C074D06E0E06840F0010394E8070010
:1005600098471034AC42F6D3FFF7C4FDCC350008F1
:10057000EC35000810B5024800F0A4F910BD0000E9
:100580006400002070B5044600252068806800F0F3
:100590000100F0B12068806820F0010021688860C7
:1005A00000F0ACFD05460EE000F0A8FD401B02285F
:1005B00009D9A06A40F01000A062E06A40F0010092
:1005C000E062012070BD2068806800F00100002812
:1005D000EAD10020F6E7000038B5044600250020E7
:1005E00000902068806800F0010080BB206880686F
:1005F00040F0010021688860164800681649B0FB89
:10060000F1F0009002E00098401E00900098002851
:10061000F9D100F073FD054613E000F06FFD401BBB
:1006200002280ED9A06A40F01000A062E06A40F0F3
:100630000100E06200BF002084F8240000BF012018
:1006400038BD2068806800F001000028E5D0002057
:10065000F6E700004400002040420F0000BFFEE724
:100660001048006820F080700E4908600846006855
:1006700040F0807008600C48006820F001000A49D2
:1006800008600846006840F00100086000204860EB
:1006900000BF00BF00BF0448406808B10020704799
:1006A0000120FCE7FCED00E0001000E031B5094856
:1006B000446800F079FF0849B0FBF1F00099484325
:1006C000009000BF03484068001B00998842F9D39E
:1006D00038BD0000001000E040420F0070470000ED
:1006E000F0B5044600250F480078522818D10D486F
:1006F000407820700B48807808700A48C0781070E5
:10070000084800791870012008E0064E365C303E3B
:1007100005EB850706EB4705461CF0B20528F4DB20
:100720002846F0BD0000002010B54FF4807000F0A6
:1007300037FB10BD7047704738B5024600230020D4
:10074000009000BF92F82400012801D1022038BD9A
:10075000012082F8240000BF4868072812D21068E0
:10076000406B0C79641E04EB84051F24AC40A0434D
:100770000D796D1E05EB85050C68AC4020431468AF
:10078000606327E048680D2812D21068006B0C796E
:10079000E41F04EB84051F24AC40A0430D79ED1F3A
:1007A00005EB85050C68AC4020431468206311E01C
:1007B0001068C06A0C790D3C04EB84051F24AC4022
:1007C000A0430D790D3D05EB85050C68AC40204339
:1007D0001468E06208680A2812D31068C0680C78B0
:1007E0000A3C04EB44050724AC40A0430D780A3DC5
:1007F00005EB45058C68AC4020431468E0600FE0D1
:10080000106800690C7804EB44050724AC40A04351
:100810000D7805EB45058C68AC40204314682061D9
:100820000868102802D00868112827D1174C1068D2
:10083000A0421ED11068806800F40000F0B9106872
:10084000806840F400001468A0600868102815D182
:100850000F4800680F4CB0FBF4F000EB8000400044
:10086000009002E00098401E009000980028F9D106
:1008700004E0906A40F020009062012300BF002055
:1008800082F8240000BF184661E700000024014000
:100890004400002040420F0010B50446054920687E
:1008A0000968884204D1204600F008F8024908602F
:1008B00010BD0000640000201400002001460868FC
:1008C000C06C704710B504462068406800F02000F6
:1008D00020282FD12068006800F00200022829D1CA
:1008E000A06A00F0100018B9A06A40F40070A0627D
:1008F0002068806800F46020B0F5602F13D1E068B4
:1009000088B92068406820F0200021684860A06A0B
:1009100020F48070A062A06A00F4805018B9A06A28
:1009200040F00100A0622046FFF7B6FF6FF0120012
:10093000216808602068406800F0800080283BD172
:100940002068006800F00400042835D1A06A00F097
:10095000100018B9A06A40F40050A06220688068B6
:1009600000F4E040B0F5E04F0DD02068406800F49E
:100970008060D0B92068806800F46020B0F5602FF6
:1009800013D1E06888B92068406820F080002168B1
:100990004860A06A20F48050A062A06A00F48070D1
:1009A00018B9A06A40F00100A0622046FFF7C3FE1C
:1009B0006FF00C00216808602068406800F040007B
:1009C00040280FD12068006800F0010050B1A06AF3
:1009D00040F48030A062204600F0A8F86FF00100DB
:1009E0002168086010BD00002DE9F0410446002791
:1009F00000250026A84614B90120BDE8F081A068B2
:100A000010B1606900B100BFA06A30B90020E06297
:100A100084F82400204600F08BF82046FFF7B2FD52
:100A20000746A06A00F01000002873D1002F71D192
:100A3000A06A20F4885040F00200A062E16960687A
:100A40000843E16840EA41000643A068B0F5807FB2
:100A500002D0A068012802D14FF4807000E000208D
:100A600005436069012811D1E06838B9A069401ECA
:100A70004FF4006141EA4030054307E0A06A40F0CE
:100A80002000A062E06A40F00100E0622068406857
:100A900020F4694028432168486020688068214923
:100AA0000840304321688860A068B0F5807F02D09C
:100AB000A068012802D14FF4807000E00020B0F55A
:100AC000807F03D1208A401E4FEA00582068C06A08
:100AD00020F4700040EA08002168C862206880683D
:100AE00011490840B04208D10020E062A06A20F01D
:100AF000020040F00100A06211E0A06A20F00200B4
:100B000040F01000A062E06A40F00100E0620127BE
:100B100005E0FFE7A06A40F01000A0620127384618
:100B20006BE70000FDF7E1FFFE0E1FFF70470000BE
:100B300010B586B004460020029003900490059002
:100B40001849206888422AD100BF1748806940F4BC
:100B50000070154988610846806900F400700190B2
:100B600000BF00BF00BF0846806940F004008861F4
:100B70000846806900F00400019000BF00BF4020DB
:100B800002900320039002A9084800F017F9002200
:100B90001146122000F035FB122000F025FB06B0B4
:100BA00010BD000000240140001002400008014078
:100BB00070B50446002500BF94F82400012801D137
:100BC000022070BD012084F8240000BF2046FFF7FA
:100BD00003FD0546002D7DD1A06A40F601618843E2
:100BE00040F48070A0623F492068884208D13E48A6
:100BF000006800F4702008B9012002E0002000E045
:100C0000012078B1A06A20F48010A06220684068BA
:100C100000F4806000B3A06A20F4005040F48050DB
:100C2000A06219E0A06A40F48010A0622E49091F5A
:100C30002068884203D02B492068884204D12A4882
:100C4000006800F4806000E0002028B1A06A20F471
:100C5000005040F48050A062A06A00F4805020B19F
:100C6000E06A20F00600E06201E00020E06200BFE0
:100C7000002084F8240000BFC01E2168086020689E
:100C8000406840F02000216848602068806800F4D7
:100C90006020B0F5602F16D112492068884208D133
:100CA0001148006800F4702008B9012002E000201B
:100CB00000E0012038B12068806840F4A00021687D
:100CC00088600CE006E02068806840F480102168AD
:100CD000886004E000BF002084F8240000BF28469C
:100CE0006FE70000002801400424014070B504466D
:100CF000002594F82100022803D00420A0630125D8
:100D000048E02068006820F00E0021680860206834
:100D1000006820F00100216808601F4920688842AF
:100D200001D1012026E01C4914312068884201D1FC
:100D300010201FE0184928312068884201D1801511
:100D400018E015493C312068884201D1801411E037
:100D5000114950312068884202D14FF4803009E0B7
:100D60000D4964312068884202D14FF4801001E0BF
:100D70004FF08070084908394860012084F821004C
:100D800000BF002084F8200000BF606B10B1204637
:100D9000616B8847284670BD08000240704700001C
:100DA00010B5044604480068204020B102480460A1
:100DB0002046FFF7F3FF10BD140401402DE9F8476A
:100DC00003460024002000258446002700226EE10F
:100DD0004FF0010808FA02F4D1F8008008EA040094
:100DE000A0427DD1DFF8D0A2D1F80480A8EB0A0997
:100DF000D0453AD014DCB8F1030F50D009DCB8F17B
:100E0000000F31D0B8F1010F1CD0B8F1020F49D159
:100E100020E0B8F1110F18D0B8F1120F42D11EE046
:100E2000B9F5881F25D006DCB9F5803F20D0B9F58B
:100E3000801F37D11AE0B9F5001F18D0B9F5041F8B
:100E400030D117E0D1F80CC02DE0D1F80C8008F1BA
:100E5000040C28E0D1F80C8008F1080C23E0D1F84C
:100E60000C8008F10C0C1EE000BF00BF00BF00BFEB
:100E700000BF00BFD1F80880B8F1000F02D14FF0D9
:100E8000040C0BE0D1F80880B8F1010F03D14FF04A
:100E9000080C1C6102E04FF0080C5C6103E04FF0AD
:100EA000000C00E000BF00BFFF2801D8984601E019
:100EB00003F104084646FF2802D84FEA820803E0FF
:100EC000A2F108084FEA88084746D6F800804FF09C
:100ED0000F0909FA07F928EA09080CFA07F900E0EE
:100EE00088E048EA0908C6F80080D1F8048008F0D4
:100EF0008058B8F1805F7DD100BFDFF8C081D8F89D
:100F0000188048F00108DFF8B491C9F81880C84685
:100F1000D8F8188008F00108CDF8008000BF00BFA5
:100F20004FEAB9384FEA920958F829504FEA8278C7
:100F30004FEA18794FF00F0808FA09F825EA080572
:100F4000DFF87C81434502D14FF0000816E0DFF85E
:100F50007481434502D14FF001080FE0DFF868814A
:100F6000434502D14FF0020808E0DFF860814345B5
:100F700002D14FF0030801E04FF004084FEA8279F4
:100F80004FEA197908FA09F848EA0505DFF84081BF
:100F90004FEA920948F82950D1F8048008F48038C3
:100FA000B8F5803F0AD1DFF82C81D8F8008048EAF4
:100FB0000008DFF82091C9F8008009E0DFF814810B
:100FC000D8F8008028EA0008DFF80891C9F8008006
:100FD000D1F8048008F40038B8F5003F10D1DFF8EC
:100FE000F48008F10408D8F8008048EA0008DFF827
:100FF000E49000E05AE009F10409C9F800800DE02E
:10100000DFF8D08008F10408D8F8008028EA00084A
:10101000DFF8C09009F10409C9F80080D1F8048014
:1010200008F48018B8F5801F0ED1DFF8A88008F109
:101030000808D8F8008048EA0008DFF8989009F11D
:101040000809C9F800800DE0DFF8888008F1080879
:10105000D8F8008028EA0008DFF8789009F108093C
:10106000C9F80080D1F8048008F40018B8F5001F12
:101070000ED1DFF8608008F10C08D8F8008048EA4B
:101080000008DFF8509009F10C09C9F800800DE064
:10109000DFF8408008F10C08D8F8008028EA000842
:1010A000DFF8309009F10C09C9F80080521C102AB1
:1010B000FFF48EAEBDE8F88700001110001002406A
:1010C00000080140000C01400010014000140140E4
:1010D0000800014000040140024693680B400BB138
:1010E000012000E000207047C2684A40C26070479B
:1010F0000AB1016101E00B04036170470148006817
:101100007047000038000020034800680349097850
:101110000844014908607047380000204000002062
:1011200010B50848006840F0100006490860032028
:1011300000F0A6F8002000F007F800F02BF80020DF
:1011400010BD00000020024070B504460E48007833
:101150004FF47A71B1FBF0F00C490968B1FBF0F57E
:10116000284600F0B1FC08B1012070BD102C07D258
:1011700000222146501E00F044F80548046001E0BA
:101180000120F2E70020F0E74000002044000020AA
:101190003C00002008B500BF1148806940F0010004
:1011A0000F4988610846806900F00100009000BF87
:1011B00000BF00BF0846C06940F08050C8610846C3
:1011C000C06900F08050009000BF00BF00BF05491B
:1011D000486820F0E06040F00070486000BF08BD43
:1011E000001002400000014000BF00F01F0201217A
:1011F00091404209920002F1E022C2F8001100BFC2
:1012000070472DE9F05F80460D461646002701F035
:1012100069FB074639462A46334601F00700C0F10C
:10122000070ABAF1040F02D94FF0040A01E0C0F135
:10123000070AD14600F1040ABAF1070F02D24FF0B3
:10124000000A01E0A0F1030AD4464FF0010A0AFAAD
:1012500009FAAAF1010A0AEA020A0AFA0CFA4FF09C
:10126000010B0BFA0CFBABF1010B0BEA030B4AEA87
:101270000B042146404601F03DFBBDE8F09F000015
:1012800000BF00F00702064B19684FF6FF03194034
:10129000044B0B4343EA0221014B196000BF704726
:1012A0000CED00E00000FA05F8B504460026002524
:1012B000207800F0010000286BD000274348C06967
:1012C00000F0805070B900BF4048C06940F08050C5
:1012D0003E49C8610846C06900F08050009000BFD8
:1012E00000BF01273A48006800F48070B0B9384860
:1012F000006840F4807036490860FFF7FFFE06463C
:1013000006E0FFF7FBFE801B642801D90320F8BD2F
:101310002F48006800F480700028F2D02B48006A43
:1013200000F440752DB3A08800F44070A84220D08E
:101330002648006A20F440750120264908600020F4
:1013400008602248056205F0010090B1FFF7D6FE63
:10135000064608E0FFF7D2FE801B41F28831884242
:1013600001D90320D3E71948006A00F002000028E1
:10137000F0D01648006A20F44070616808431349B1
:101380000862012F04D10846C06920F08050C8616E
:1013900000BF207800F00200022807D10B48406807
:1013A00020F44040A168084308494860207800F0D4
:1013B0001000102807D10548406820F48000E1683B
:1013C0000843024948600020A1E7000000100240E5
:1013D000007000404004424270B504460D460026AD
:1013E0006D48006800F00700A8420ED26A48006805
:1013F00020F007002843684908600846006800F0AC
:101400000700A84201D0012070BD207800F0020042
:1014100002281DD1207800F00400042805D15F487F
:10142000406840F4E0605D494860207800F00800C2
:10143000082805D15948406840F460505749486031
:101440005648406820F0F000A168084353494860BE
:10145000207800F0010000285DD06068012806D1E6
:101460004E48006800F4003090B90120CCE7606875
:10147000022806D14948006800F0007040B90120F8
:10148000C2E74648006800F0020008B90120BBE747
:101490004248406820F00300616808433F494860C3
:1014A000FFF72CFE06466068012810D108E0FFF720
:1014B00025FE801B41F28831884201D90320A3E731
:1014C0003648406800F00C000428F0D123E0606842
:1014D000022810D108E0FFF711FE801B41F288318D
:1014E000884201D903208FE72C48406800F00C00A7
:1014F0000828F0D10FE008E0FFF700FE801B41F262
:101500008831884201D903207EE72448406800F0F2
:101510000C000028F0D12048006800F00700A84225
:101520000ED91D48006820F0070028431A490860BA
:101530000846006800F00700A84201D0012063E7D8
:10154000207800F00400042807D11448406820F4F3
:10155000E060E168084311494860207800F0080025
:10156000082808D10D48406820F46050216940EAFD
:10157000C1000A49486000F03DF808494968C1F3D4
:101580000311074A515CC840064908600020FFF774
:10159000DBFD002038E70000002002400010024080
:1015A000B33500084400002001480068704700007F
:1015B0004400002000B5FFF7F7FF04494968C1F374
:1015C0000221034A515CC84000BD000000100240E7
:1015D000C335000800B5FFF7E7FF04494968C1F3C8
:1015E000C221034A515CC84000BD00000010024007
:1015F000C3350008F0B585B00FF26C0C9CE8E01024
:1016000001A8A0E8E0101CA52D680095002100228B
:10161000002300240020194D696801F00C05F5B184
:10162000042D02D0082D19D101E0154819E001ADB3
:10163000C1F38346AC5D01F4803555B10F4D6D6843
:10164000C5F340451DF805200D4D6543B5FBF2F38C
:1016500002E00C4D04FB05F3184602E000BF084809
:1016600000BF00BF05B0F0BD02030405060708096E
:101670000A0B0C0D0E0F10100102000000100240AA
:1016800000127A0000093D00F8B5044600252078D4
:1016900000F00100002878D0F848406800F00C0005
:1016A00004280CD0F548406800F00C00082811D13F
:1016B000F248406800F48030B0F5803F0AD1EF482E
:1016C000006800F4003000285FD0606800285CD11A
:1016D0000120F8BD00BF6068B0F5803F06D1E74843
:1016E000006840F48030E549086028E0606858B937
:1016F000E248006820F48030E0490860084600684D
:1017000020F4802008601AE06068B0F5A02F0BD1AB
:10171000DA48006840F48020D8490860084600682C
:1017200040F4803008600AE0D448006820F480303B
:10173000D24908600846006820F48020086000BF95
:10174000606888B1FFF7DAFC054606E0FFF7D6FCD3
:10175000401B642801D90320BBE7C848006800F497
:1017600000300028F2D010E0FFF7C8FC054606E084
:10177000FFF7C4FC401B642801D90320A9E7BF4838
:10178000006800F400300028F2D1207800F0020058
:10179000022857D1B948406800F00C0050B1B74852
:1017A000406800F00C00082818D1B448406800F4E4
:1017B000803098B9B148006800F0020020B120697B
:1017C000012801D0012084E7AC48006820F0F8002F
:1017D000616940EAC100A949086033E02069E8B1C5
:1017E0000120A7490860FFF789FC054606E0FFF7DE
:1017F00085FC401B022801D903206AE79F48006846
:1018000000F002000028F2D09C48006820F0F800A8
:10181000616940EAC1009949086013E000209849D5
:101820000860FFF76BFC054606E0FFF767FC401B0E
:10183000022801D903204CE79048006800F002001C
:101840000028F2D1207800F0080008282DD1A069E6
:10185000B8B101208B490860FFF750FC054606E04F
:10186000FFF74CFC401B022801D9032031E78348D5
:10187000406A00F002000028F2D0012001F050F888
:1018800013E000207F490860FFF738FC054606E0BA
:10189000FFF734FC401B022801D9032019E77748E1
:1018A000406A00F002000028F2D1207800F0040025
:1018B000042873D100267148C06900F0805070B9C7
:1018C00000BF6E48C06940F080506C49C86108464E
:1018D000C06900F08050009000BF00BF01266A4838
:1018E000006800F48070B0B96748006840F4807008
:1018F00065490860FFF702FC054606E0FFF7FEFBBE
:10190000401B642801D90320E3E65F48006800F427
:1019100080700028F2D000BFE068012806D1574847
:10192000006A40F001005549086227E0E06858B9B4
:101930005248006A20F00100504908620846006AD7
:1019400020F00400086219E0E06805280BD14B483C
:10195000006A40F00400494908620846006A40F005
:10196000010008620AE04548006A20F0010043498E
:1019700008620846006A20F00400086200BFE068C0
:10198000A0B1FFF7BBFB054609E0FFF7B7FB401B23
:1019900041F28831884202D903209AE622E0374892
:1019A000006A00F002000028EFD012E0FFF7A6FB6B
:1019B000054608E0FFF7A2FB401B41F28831884250
:1019C00001D9032085E62D48006A00F002000028B6
:1019D000F0D1012E05D12948C06920F08050274957
:1019E000C86100BFE069C8B32448406800F00C003B
:1019F000082860D0E069022848D100202049086604
:101A0000FFF77CFB054606E0FFF778FB401B02284A
:101A100001D903205DE61948006800F00070002835
:101A2000F2D1206AB0F5803F07D11448406820F415
:101A30000030A168084311494860D4E9080108430F
:101A40000E49496821F4741108430C49486001208B
:101A50000B490866FFF752FB054607E02DE0FFF74C
:101A60004DFB401B022801D9032032E603480068E1
:101A700000F000700028F2D01FE0000000100240CB
:101A800000004242800442420070004000200C49A5
:101A90000866FFF733FB054606E0FFF72FFB401B08
:101AA000022801D9032014E60648006800F00070FF
:101AB0000028F2D101E001200BE6002009E6000039
:101AC000000042420010024070B504462546681EE0
:101AD000B0F1807F01D301200FE0681E4FF0E021BC
:101AE00048610F214FF0FF3000F004FF00204FF05D
:101AF000E021886107200861002070BD70477047B1
:101B0000024600BF92F83C00012801D10220704734
:101B1000012082F83C0000BF022082F83D001068DE
:101B2000406820F0700013685860106840680B68C7
:101B30001843136858601068806820F080001368AC
:101B40009860106880684B6818431368986001209B
:101B500082F83D0000BF002082F83C0000BF00BFBB
:101B6000D5E710B504460CB9012010BD94F83D002E
:101B700028B9002084F83C00204600F00DF802202F
:101B800084F83D00211D206800F05AFF012084F8F0
:101B90003D000020E9E7000038B504462068B0F1B8
:101BA000804F15D100BF0B48C06940F001000949C2
:101BB000C8610846C06900F00100009000BF00BF86
:101BC000002211461C20FFF71CFB1C20FFF70CFB1A
:101BD00038BD0000001002402DE9F04104460D46DA
:101BE000002600BF94F83C00012802D10220BDE885
:101BF000F081012084F83C0000BF022084F83D0001
:101C00002068866826F0770626F47F46206886607E
:101C1000286850283BD00CDC202860D004DC002849
:101C200053D0102865D155E030285DD0402860D1D0
:101C300041E0602835D070280DD0B0F5805F03D02A
:101C4000B0F5005F55D115E02068806820F00700EE
:101C5000216888604EE0D5E902136A68206800F0C8
:101C600037FF2068866826F0770646F077062068FA
:101C700086603FE0D5E902136A68206800F028FF1B
:101C80002068806840F480402168886032E0EA681B
:101C90006968206800F0FAFF5021206800F024FFF6
:101CA00028E0EA686968206801F005F8602120688A
:101CB00000F01AFF1EE0EA686968206800F0E6FF9D
:101CC0004021206800F010FF14E00021206800F09F
:101CD0000BFF0FE01021206800F006FF0AE0202132
:101CE000206800F001FF05E03021206800F0FCFED4
:101CF00000E000BF00BF012084F83D0000BF0020CD
:101D000084F83C0000BF00BF71E7704710B504467F
:101D100020680069C0F34000D8B12068C068C0F3F3
:101D20004000B0B16FF00200216808610120207707
:101D30002068806900F0030018B12046FFF7E5FF36
:101D400005E0204600F0E6F8204600F083F9002088
:101D5000207720680069C0F38000D8B12068C0688F
:101D6000C0F38000B0B16FF0040021680861022068
:101D700020772068806900F4407018B12046FFF792
:101D8000C4FF05E0204600F0C5F8204600F062F9E7
:101D90000020207720680069C0F3C000D8B1206817
:101DA000C068C0F3C000B0B16FF0080021680861DE
:101DB000042020772068C06900F0030018B1204695
:101DC000FFF7A3FF05E0204600F0A4F8204600F04E
:101DD00041F90020207720680069C0F30010D8B1D5
:101DE0002068C068C0F30010B0B16FF01000216827
:101DF0000861082020772068C06900F4407018B19D
:101E00002046FFF782FF05E0204600F083F82046D9
:101E100000F020F9002020772068006900F0010020
:101E200058B12068C06800F0010030B16FF00100C7
:101E300021680861204600F055F920680069C0F368
:101E4000C01058B12068C068C0F3C01030B16FF046
:101E50008000216808612046FFF750FE2068006975
:101E6000C0F3801058B12068C068C0F3801030B152
:101E70006FF0400021680861204600F034F92068C6
:101E80000069C0F3401058B12068C068C0F340102A
:101E900030B16FF02000216808612046FFF72FFE67
:101EA00010BD000010B586B00446002002900390DB
:101EB000049005902068B0F1804F22D100BF1248F5
:101EC000806940F00800104988610846806900F088
:101ED0000800019000BF00BF08200290022003907C
:101EE0000320059002A90948FEF768FF00BF0849D2
:101EF000486820F4407040F0E06040F48070486032
:101F000000BF06B010BD000000100240000C0140F0
:101F100000000140704770B504460D46164600BFEC
:101F200094F83C00012801D1022070BD012084F802
:101F30003C0000BF022084F83D0036B1042E1BD0C7
:101F4000082E31D00C2E5ED145E02946206800F0E5
:101F5000D5FD2068806940F008002168886120680C
:101F6000806920F0040021688861206880692969FF
:101F700008432168886147E02946206800F0F0FDA9
:101F80002068806940F40060216888612068806969
:101F900020F480602168886120688069296940EAAE
:101FA0000120216888612FE02946206800F010FE9A
:101FB0002068C06940F008002168C8612068C069D5
:101FC00020F004002168C8612068C06929690843BD
:101FD0002168C86118E02946206800F02FFE2068BB
:101FE000C06940F400602168C8612068C06920F4BD
:101FF00080602168C8612068C069296940EA0120C1
:102000002168C86100E000BF00BF012084F83D00E6
:1020100000BF002084F83C0000BF00BF85E710B57A
:1020200004460CB9012010BD94F83D0028B90020E9
:1020300084F83C00204600F00CF8022084F83D00B3
:10204000211D206800F0FCFC012084F83D000020E8
:10205000E9E770477047000030B504460D4635B1DA
:10206000042D0BD0082D10D00C2D1CD114E02068AD
:10207000C06840F002002168C86015E02068C068B0
:1020800040F004002168C8600EE02068C06840F09D
:1020900008002168C86007E02068C06840F01000B0
:1020A0002168C86000E000BF00BF01222946206807
:1020B00000F000FD0A492068884201D1012000E0BB
:1020C000002028B12068406C40F40040216848643A
:1020D0002068006840F0010021680860002030BDE1
:1020E000002C014070477047704700002DE9F04711
:1020F0000446206805682068C668206847694FF074
:102100000008C14605F00F08B8F1000F0AD105F02C
:10211000200038B106F0200020B1204600F00BFE70
:10212000BDE8F087B8F1000F6DD007F0010018B9D5
:1021300006F49070002866D005F0010030B106F476
:10214000807018B1E06B40F00100E06305F004001E
:1021500030B107F0010018B1E06B40F00200E0631D
:1021600005F0020030B107F0010018B1E06B40F05B
:102170000400E06305F0080030B107F0010018B179
:10218000E06B40F00800E063E06B68B305F020000E
:1021900028B106F0200010B1204600F0CCFD2068E8
:1021A0004069C0F38019E06B00F0080010B9B9F184
:1021B000000F22D0204600F09EFD2068406900F00C
:1021C0004000B0B12068406920F0400021684861BB
:1021D000606B50B11748616B4863606BFEF786FD1A
:1021E00010B1606B416B88470CE02046FFF77CFF25
:1021F00008E02046FFF778FF04E02046FFF774FF71
:102200000020E0638CE705F0800030B106F080002C
:1022100018B1204600F0C6FE82E705F0400030B15C
:1022200006F0400018B1204600F075FD78E700BFC9
:1022300076E70000E32C000810B504460CB9012035
:1022400010BDA06900B100E000BF94F8390028B9C2
:10225000002084F83800204600F028F8242084F874
:1022600039002068C06820F400502168C86020460A
:1022700000F0B4FD2068006920F4904021680861F6
:102280002068406920F02A00216848612068C06801
:1022900040F400502168C8600020E063202084F8EA
:1022A000390084F83A000020CAE7000010B586B073
:1022B000044600200290039004900590594920683C
:1022C000884237D100BF5848806940F48040564961
:1022D00088610846806900F48040019000BF00BF1B
:1022E00000BF0846806940F00400886108468069A4
:1022F00000F00400019000BF00BF481502900220CA
:1023000003900320059002A94848FEF757FD4FF4BB
:102310008060029000200390049002A94348FEF7D9
:102320004DFD002201212520FEF76BFF2520FEF741
:102330005BFF75E03E492068884236D100BF3A48CD
:10234000C06940F400303849C8610846C06900F4EB
:102350000030019000BF00BF00BF0846806940F018
:10236000040088610846806900F00400019000BF05
:1023700000BF04200290022003900320059002A9D0
:102380002A48FEF71BFD08200290002003900490CD
:1023900002A92648FEF712FD002211462620FEF76C
:1023A00030FF2620FEF720FF3AE0224920688842CD
:1023B00036D100BF1C48C06940F480201A49C8616A
:1023C0000846C06900F48020019000BF00BF00BF34
:1023D0000846806940F0080088610846806900F07E
:1023E0000800019000BF00BF081502900220039072
:1023F0000320059002A91048FEF7E0FC4FF40060AE
:10240000029000200390049002A90B48FEF7D6FC2E
:10241000002211462720FEF7F4FE2720FEF7E4FEF7
:1024200006B010BD00380140001002400008014015
:102430000044004000480040000C014010B5034635
:1024400093F83A0020282FD101B10AB9012010BD1C
:1024500000BF93F83800012801D10220F7E70120DE
:1024600083F8380000BF99629A85DA850020D86326
:10247000222083F83A0000BF002083F8380000BF14
:102480001868C06840F480701C68E0601868406993
:1024900040F001001C6860611868C06840F02000CE
:1024A0001C68E0600020D2E70220D0E710B50446A7
:1024B00010492068884207D101200F490870052281
:1024C0000E490F48FFF7BAFF0E492068884204D131
:1024D00006220D490D48FFF7B1FF0D4920688842DB
:1024E00007D100200B49087007220B490B48FFF762
:1024F000A5FF10BD00380140180000200D0000208D
:10250000D4000020004400400000002014010020FE
:10251000004800401900002006000020540100205F
:102520002DE9F84304460D4616461F464FF00009B4
:1025300094F8390020285CD105B116B90120BDE816
:10254000F88300BF94F83800012801D10220F6E793
:10255000012084F8380000BF0020E063212084F8C7
:102560003900FEF7CBFD8146A684E6842BE0E08CA3
:10257000401EE084A068B0F5805F16D14B46002273
:1025800080212046009700F041FD08B10320D6E7E6
:10259000A846B8F80000C0F3080021684860206928
:1025A00008B9AD1C0FE06D1C0DE04B4600228021E8
:1025B0002046009700F02AFD08B10320BFE715F878
:1025C000010B21684860E08C0028D0D14B460022E6
:1025D00040212046009700F019FD08B10320AEE726
:1025E000202084F8390000BF002084F8380000BFA4
:1025F000A5E70220A3E7704700BFFEE70EB5002065
:10260000009001900290134813490860002112487D
:1026100081600121C160002141614FF46021C161ED
:1026200000200D49486001210B480161FEF7DCF9EB
:1026300008B1FEF77FF806200090012001900720E6
:10264000029069460448FEF777F808B1FEF772F881
:102650000EBD0000002401406400002000B585B0DC
:102660000020019002900390049000BF44488069CC
:1026700040F01000424988610846806900F010006F
:10268000009000BF00BF00BF0846806940F02000F6
:1026900088610846806900F02000009000BF00BFFC
:1026A00000BF0846806940F00400886108468069E0
:1026B00000F00400009000BF00BF00BF0846806922
:1026C00040F0080088610846806900F0080000902A
:1026D00000BF00BF012251032A48FEF709FD002276
:1026E00030212948FEF704FD00224FF400712748ED
:1026F000FEF7FEFC4FF400500190012002900020F4
:1027000003900320049001A91E48FEF757FB3020D8
:10271000019011200290012003900220049001A951
:102720001948FEF74BFB4FF4807001900020029097
:10273000039001A91448FEF741FB4FF4807001900B
:10274000134802900020039001A91048FEF736FBC1
:102750004FF400700190112002900020039003209C
:10276000049001A90948FEF729FB00221146172011
:10277000FEF747FD1720FEF737FD05B000BD00004E
:10278000001002400010014000080140000C014010
:102790000000211000B58DB0002009900A900B9028
:1027A0000C90079008901C216846FDF7D2FC4FF072
:1027B00080401F4908600220486000211C48816059
:1027C000C821C160002101618161FFF7CAF908B128
:1027D000FDF7B0FF4FF48050099009A91448FFF7A6
:1027E000FBF908B1FDF7A6FF1148FFF718FC08B187
:1027F000FDF7A0FF00200790089007A90C48FFF7FD
:102800007FF908B1FDF796FF60200090002001904D
:1028100002900490042269460548FFF77CFB08B14A
:10282000FDF788FF0248FFF73DFB0DB000BD00003B
:102830009400002010B50B480B4908604FF4165067
:102840004860002108488160C16001610C2141613C
:1028500000218161C161FFF7EFFC08B1FDF76AFF5C
:1028600010BD000000380140D400002010B50B4816
:102870000B4908604FF416504860002108488160F9
:10288000C16001610C21416100218161C161FFF7DB
:10289000D3FC08B1FDF74EFF10BD0000004400401E
:1028A0001401002010B50B480B4908604FF4165076
:1028B0004860002108488160C16001610C214161CC
:1028C00000218161C161FFF7B7FC08B1FDF732FF5C
:1028D00010BD0000004800405401002000BFFEE78A
:1028E0007047000002480068C0F3022070470000F3
:1028F0000CED00E010B5002807DA0A07140E054AAF
:1029000000F00F031B1FD45403E00A07130E024A02
:10291000135410BD18ED00E000E400E07047000023
:1029200008B508490968C9084FF47A72B1FBF2F199
:102930004143009100BF00BF00994A1E0092002948
:10294000F9D108BD44000020704710B5FEF7DCFB4C
:1029500010BD00B593B0282109A8FDF7FAFB14219A
:1029600004A8FDF7F6FB0020009001900290039070
:102970000120099000040A9000200B9001200D9086
:1029800002201090C10311914FF4E011129109A897
:10299000FEF77AFE08B1FDF7CDFE0F20049002206D
:1029A0000590002006904FF480600790002008906A
:1029B000022104A8FEF710FD08B1FDF7BBFE0220BE
:1029C0000090800302906846FEF76EFC08B1FDF7A8
:1029D000B1FE13B000BD00001148006840F00100D6
:1029E0000F490860084640680E4908400C49486095
:1029F000084600680C490840094908600846006814
:102A000020F4802008600846406820F4FE004860FA
:102A10004FF41F008860C803044908607047000035
:102A2000001002400000FFF8FFFFF6FE08ED00E096
:102A300010B50248FFF76AF910BD000094000020AD
:102A400000220268184B984208D0B0F1804F05D0A0
:102A5000164B984202D0164B984203D122F07002D6
:102A60004B681A43104B984208D0B0F1804F05D004
:102A70000E4B984202D00E4B984203D122F4407282
:102A8000CB681A4322F080024B691A4302608B68BC
:102A9000C3620B688362044B984201D10B690363E4
:102AA0000123436170470000002C014000040040F6
:102AB0000008004030B50023012404FA01F3046A41
:102AC0009C430462046A02FA01F52C43046230BD9F
:102AD00030B50C460021816821F47F4142EA03258C
:102AE00025432943816030BD0A460021816821F0D9
:102AF000700142F0070319438160704730B500242C
:102B000000220023056A25F001050562026A436878
:102B1000846924F0700424F003040D682C4322F02F
:102B200002028D682A430D4DA84206D100BF22F053
:102B30000802CD682A4322F00402084DA84207D1BA
:102B400023F4807323F400734D692B438D692B4369
:102B5000436084614D684563026230BD002C0140D2
:102B600030B5002400220023056A25F01005056217
:102B7000026A4368846924F4E04424F440740D68D4
:102B800044EA052422F020028D6842EA05120F4D26
:102B9000A84207D100BF22F08002CD6842EA0512A8
:102BA00022F04002094DA84209D123F4806323F4A6
:102BB00000634D6943EA85038D6943EA85034360F9
:102BC00084614D688563026230BD0000002C0140C5
:102BD00030B5002400220023056A25F480750562C3
:102BE000026A4368C46924F0700424F003040D6889
:102BF0002C4322F400728D6842EA05220E4DA84251
:102C000007D100BF22F40062CD6842EA052222F417
:102C10008062094DA84209D123F4805323F4005364
:102C20004D6943EA05138D6943EA05134360C461A6
:102C30004D68C563026230BD002C014030B50022F2
:102C400000230024056A25F480550562036A446860
:102C5000C26922F4E04222F440720D6842EA052281
:102C600023F400538D6843EA0533074DA84204D18D
:102C700024F480444D6944EA85144460C2614D687F
:102C80000564036230BD0000002C014030B50B46E6
:102C9000144600210022026A056A25F0010505623A
:102CA000816921F0F00141EA041122F00A021A437D
:102CB0008161026230BD30B50B461446002100220E
:102CC000056A25F0100505628169026A21F47041E8
:102CD00041EA043122F0A00242EA03128161026259
:102CE00030BD70B505466C6A0020E085E084204662
:102CF000FFF7FAF970BD0168C96821F490710268A4
:102D0000D1600168496921F0010102685161202107
:102D100080F83A10704710B504462068C06820F06B
:102D200040002168C860202084F839002046FFF761
:102D300062FC002010BD70B5044694F83A002228C9
:102D40004AD1A068B0F5805F13D1A56A206940B967
:102D500020684068C0F308002880A06A801CA06238
:102D600019E020684068C0B22880A06A401CA062B8
:102D700011E0206938B920684068C1B2A26A501CCD
:102D8000A062117007E02068406800F07F01A26A2D
:102D9000501CA0621170E08D401E80B2E085C8B961
:102DA0002068C06820F020002168C8602068C068E2
:102DB00020F480702168C8602068406920F001001C
:102DC00021684861202084F83A002046FFF76EFB16
:102DD000002070BD0020FCE70220FAE72DE9F04159
:102DE000044600252068006920F44050E16808434B
:102DF000216808612169A0680843616908430543A7
:102E00002068C06841F20C61884328432168C8608B
:102E10002068406920F44070A16908432168486136
:102E20005F49206888425CD1FEF7D4FB00EBC0010B
:102E300001EB001061688900B0FBF1F6FEF7CAFBF8
:102E400000EBC00101EB001061688900B0FBF1F0FC
:102E50006421B0FBF1F000EBC00101EB0010A6EB28
:102E60008000322101EB00106421B0FBF1F000F092
:102E7000F006FEF7AFFB00EBC00101EB001061684C
:102E80008900B0FBF1F06421B0FBF1F006EB001615
:102E9000FEF7A0FB00EBC00101EB001061688900A8
:102EA000B0FBF1F7FEF796FB00EBC00101EB001061
:102EB00061688900B0FBF1F06421B0FBF1F000EB38
:102EC000C00101EB0010A7EB8000322101EB0010E4
:102ED0006421B0FBF1F000F00F00304421688860FD
:102EE0005BE0FEF767FB00EBC00101EB00106168DF
:102EF0008900B0FBF1F6FEF75DFB00EBC00101EBD2
:102F0000001061688900B0FBF1F06421B0FBF1F0C2
:102F100000EBC00101EB0010A6EB8000322101EBB9
:102F200000106421B0FBF1F000F0F006FEF742FB68
:102F300000EBC00101EB001061688900B0FBF1F00B
:102F40006421B0FBF1F006EB0016FEF733FB00EB5B
:102F5000C00101EB001061688900B0FBF1F7FEF7DA
:102F600029FB00EBC00101EB001061688900B0FB98
:102F7000F1F06421B0FBF1F000EBC00101EB0010B7
:102F8000A7EB8000322101EB00106421B0FBF1F0CF
:102F900000F00F00304421688860BDE8F081000037
:102FA00000380140014691F8390021282CD1886869
:102FB000B0F5805F0FD10A6A1088C0F308000B6873
:102FC0005860086918B9086A801C086209E0086A34
:102FD000401C086205E00B6A581C086218780B68F0
:102FE0005860C88C401E80B2C88458B90868C06850
:102FF00020F080000B68D8600868C06840F040008E
:103000000B68D860002070470220FCE72DE9F041F2
:1030100004460D4617469846069E21E0701CF8B1FE
:103020002EB1FEF76BF8A0EB0800B04218D920686B
:10303000C06820F4D0702168C8602068406920F022
:10304000010021684861202084F8390084F83A00A2
:1030500000BF002084F8380000BF0320BDE8F081E5
:10306000206800682840A84201D1012000E000202B
:10307000B842D3D00020F1E710B50248FFF736F888
:1030800010BD0000D400002010B50248FFF72EF854
:1030900010BD00001401002010B50248FFF726F80B
:1030A00010BD00005401002000BFFEE702E008C888
:1030B000121F08C1002AFAD170477047002001E0B2
:1030C00001C1121F002AFBD17047014600220020D7
:1030D00004E00B5C13449AB2431CD8B20628F8DB18
:1030E000D0B2704710B500BF4FF480710D48FDF7A6
:1030F000F3FF0028F8D02820FDF7D8FA4FF48071AC
:103100000848FDF7E9FF012809D100BF4FF480719D
:103110000448FDF7E1FF0128F8D0012010BD002090
:10312000FCE700000008014070B50024002508E01D
:103130004FF6FF7000EA4404FFF7D4FF0443681C15
:1031400085B2082DF4DB204670BD000070B5044642
:10315000002500F035F800F04DF860BB00BF00F02E
:1031600049F80028FBD000BF00F044F80128FBD04C
:10317000002504E0FFF7D8FF6055681C85B2052DD7
:10318000F8DB00BF00F036F80028FBD000F0ECF9C7
:1031900000224FF480710948FDF7AAFF207861787A
:1031A0000844A1780844E1780844C6B22079B042C6
:1031B00001D0012070BD0020FCE7000000080140A4
:1031C00010B500F0D1F900224FF480710848FDF7E6
:1031D0008FFF44F63820FDF769FA012211020448F6
:1031E000FDF786FF1E20FDF761FA00F0ADF910BD76
:1031F0000008014010B54FF480710448FDF76CFFE2
:1032000008B9002010BD0120FCE7000000080140C3
:103210002DE9FC4106460C4615461F46144903C9D4
:10322000CDE900018DF800406846FFF74EFF8DF8AC
:1032300006004FF47A73072269463046FFF770F9AB
:1032400000BF0C4800780028FBD101200949087014
:1032500009480078A84209D10748FFF736FF064918
:103260008979884202D10448BDE8FC810020FBE74F
:10327000AC350008190000200600002070B5054696
:103280000723A022B0212846FFF7C2FF044660783A
:1032900016490870A0784870E07888700723A1224A
:1032A000B1212846FFF7B4FF0446A0780F49C87043
:1032B000E07808710723A222B2212846FFF7A8FF71
:1032C0000446607809494871A07888710723A322D1
:1032D000B3212846FFF79CFF044660780349C87174
:1032E000A0780872E0784872084670BD4800002057
:1032F00088B000200790FDF713FFFFF72AFBFFF7C8
:10330000ADF9FFF7CFFAFFF745FAFFF793FAFFF7AA
:10331000ADFAFFF773F9052279497A48FFF78EF87D
:10332000062279497948FFF789F8072278497948D0
:10333000FFF784F87848FDF73BFCFDF791F904218D
:103340007648FEF789FEAF20744909688863D5E0A6
:1033500005216B4800F01AF9694909798842F6D1CC
:103360006F4800780028F2D0654800780128EED137
:1033700063484078C128EAD161488078A128E6D125
:103380000020674908705E48C078962876D11821D9
:1033900001A8FCF7DEFE01208DF80400C1208DF8A5
:1033A0000500A1208DF806005A48FFF767FF5D4928
:1033B0000860032007E0C11E5A4A1268515C01AA46
:1033C0001154411CC8B20D28F5DB05AB5A1E511E25
:1033D000481EFDF785F9544908605448FFF7B6FECA
:1033E000002841D1514800788DF815004F484078A9
:1033F0008DF816004D4880788DF817004B48C0783E
:103400008DF8180049494878FCF7C4FF824600222D
:10341000474BFCF750FF06460F4644490878FCF737
:10342000B9FF804632463B46FCF79EFE0446FCF759
:10343000BEFF404908603D49C878FCF7ABFF06462F
:1034400000223B4BFCF737FF804689463749887896
:10345000FCF7A0FF044642464B46FCF785FE824639
:10346000FCF7A5FF344908603448006840F2DC519D
:10347000884204D2A6208DF8190003E019E0C0208C
:103480008DF819002E4800788DF81A00182101A82F
:1034900000F07CF88DF81B004FF47A73182201A914
:1034A0001848FFF73DF84FF400512648FDF71CFE81
:1034B00024E00798401CC0B207900020069000BF8F
:1034C00004E00F49095C06AA1154401C0328F8DBEC
:1034D0000B4800798DF81B004FF47A73042206A97B
:1034E0000848FFF71DF80648C078154908700846D7
:1034F0000078400009490968886300BF28E7000098
:103500000D000020D4000020000000201401002045
:1035100006000020540100206400002094000020D8
:10352000180000202C000020300000202400002083
:10353000000024401C000020200000201400002077
:10354000340000200010014010B54FF48070044991
:1035500008600020486088600248FDF72FFC10BD1D
:10356000540000200008014010B54FF48070054958
:103570000860012048600220C8600348FDF71EFC77
:1035800010BD0000540000200008014010B50246A4
:103590000023002004E0145C1C44A3B2441CE0B2ED
:1035A0004C1E8442F7DCD8B210BD000000C0A80158
:1035B00001000000000000000000000102030406FA
:1035C000070809000000000102030400EC350008B0
:1035D0000000002048000000AC300008343600082D
:1035E0004800002050050000BC300008000000002A
:1035F00000000000000000000000000000000000CB
:1036000000000000000100000000000000000000B9
:1036100000000000000000000000000000000000AA
:103620000000000000000000100000000100000089
:0436300000A24A04A6
:04000005080000ED02
:00000001FF
